:020000040800F2
:10000000C80B00200101000895130008C510000866
:100010005512000871060008A33C0008000000000B
:100020000000000000000000000000000D27000894
:10003000110D000800000000C117000891290008F8
:100040001B0100081B0100081B0100081B01000820
:100050001B0100081B0100081B0100081B01000810
:10006000150D00081B0100081B0100081B010008FA
:100070001B0100081B0100081B0100081B010008F0
:100080001B0100081B0100081B0100081B010008E0
:100090001B0100081B0100081B0100081B010008D0
:1000A0001B0100081B0100081B0100081B010008C0
:1000B000F52900081B0100081B0100081B010008AE
:1000C0001B0100081B0100081B0100081B010008A0
:1000D0001B010008093900081B0100081B0100086A
:1000E0001B0100081B0100081B010008DFF80CD0F1
:1000F00000F01EFA00480047B15F0008C80B00205E
:100100000648804706480047FEE7FEE7FEE7FEE7B1
:10011000FEE7FEE7FEE7FEE7FEE7FEE795290008BB
:10012000ED000008421C10F8011B0029FBD1801AC9
:10013000704730B50B46014600202022012409E01B
:1001400021FA02F59D4205D303FA02F5491B04FA90
:1001500002F52844151EA2F10102F1DC30BD2DE9A3
:10016000F05F0546002092469B468846064681463B
:1001700040241BE0284641464746224600F0F9F954
:1001800053465A46C01A914110D31146184622468A
:1001900000F0E0F92D1A67EB01084F4622460120D6
:1001A000002100F0D7F917EB00094E41201EA4F101
:1001B0000104DFDC484631462A464346BDE8F09F4D
:1001C0002DE9FE4F804681EA0300C00F0C460090E7
:1001D00021F0004123F00045B8EB0200A94105D20F
:1001E0004046214690461C460B46024623F00040FE
:1001F000104347D0270DC7F30A00C3F30A510290FA
:10020000401A019040286BDAC3F3130040F4801BBE
:100210000098924620B10023D2EB030A63EB0B0B4C
:1002200001985946C0F14002504600F093F9064645
:100230000D4650465946019A00F0ABF910EB080004
:100240006141002487EA115284EAE7731A4340D0DF
:10025000009A62B3019A012A4FEA075215DC001B8B
:1002600061EB02014FF0004202EA0752CDE9004281
:10027000001C41F5801132462B4600F0ABF903B06B
:10028000BDE8F08F40462146F9E7001B61EB020113
:10029000001C41F5801300185B412018A2F50017DF
:1002A00047EB030140EAD570B6196D4111E06D08C6
:1002B0004FEA360645EAC0754FEA0752001B61EB6C
:1002C0000201001C41F5801149084FEA3000001975
:1002D000514132462B4603B0BDE8F04F00F06BB9F8
:1002E0000098012240000023D0EB020263EBE07390
:1002F000009821464FEAE074B8EB000061EB04017E
:10030000E9E783F000435BE781F0004158E72DE91E
:10031000FE4F81EA030404F0004421F00041009400
:100320004FF0000B23F0004350EA01045ED052EA84
:1003300003045BD0C3F30A54C1F30A552C44A4F25E
:10034000F3340194A0FB0254C1F3130141F4801172
:10035000C3F3130343F4801301FB024400FB034E79
:10036000840A970A44EA815447EA8357A4FB076842
:1003700002958D0A05FB07854FEA932C04FB0C546C
:100380002705029D4FEA065847EA1637B5EB0805E0
:100390006EEB070C870E920E47EA811742EA831232
:1003A000A7FB0201B6EB0B0164EB00042B0D43EA43
:1003B0000C335E1844EB1C50DA465146E7FB020151
:1003C000C5F313044FEA0B3343EA14534FEA0432E4
:1003D000019C43EA0603A4F10C040294009CCDE9BD
:1003E00000B400F0F7F803B0BDE8F08F002001463C
:1003F000F9E72DE9F04D81EA030404F0004B21F008
:10040000004514464FF0000A23F0004150EA05026F
:1004100020D054EA01021DD0C5F30A570246C5F3A5
:100420001303C1F31300C1F30A5640F4801543F4DB
:100430008013A7EB0608101BD64608F2FD3873EBB5
:10044000050002D308F1010801E092185B41B8F100
:10045000000F03DA00200146BDE8F08D00204FF4C4
:100460008011064684460EE0171B73EB050705D383
:10047000121B63EB050306434CEA010C49084FEAE3
:10048000300092185B4150EA0107EDD152EA0300B7
:1004900012D082EA040083EA0501084305D0101B4C
:1004A000AB4106D20122002306E000224FF00043B8
:1004B00002E06FF0010253101AEB06004CEB0851FA
:1004C00010EB0A0041EB0B01BDE8F04D00F073B8F2
:1004D000C1F30A52C1F3130140F2FF3341F480111A
:1004E0009A4202DA00200146704740F233439A42B2
:1004F000A2F2334202DC524200F03BB800F02AB8CC
:1005000030B5041E71F1000404DB4FF0004440429A
:1005100064EB0101141E73F1000405DB1C464FF06F
:100520000043524263EB0403994208BF904230BD3E
:10053000064C074D06E0E06840F0010394E8070030
:1005400098471034AC42F6D3FFF7D4FDA0680008FA
:10055000C0680008202A04DB203A00FA02F10020DB
:1005600070479140C2F1200320FA03F319439040F1
:100570007047202A04DB203A21FA02F0002170475C
:1005800021FA02F3D040C2F12002914008431946FB
:100590007047202A06DBCB17203A41FA02F043EAE3
:1005A000E07306E041FA02F3D040C2F1200291402C
:1005B00008431946704710B5141E73F1000408DA99
:1005C000401C41F1000192185B411A4301D120F017
:1005D000010010BD2DE9F04D92469B4611B1B1FAD4
:1005E00081F202E0B0FA80F220329046FFF7B2FFCB
:1005F00004460F4640EA0A0041EA0B0153465A46B8
:10060000084313D0114653EA010019D0C8F1400243
:100610005046FFF7AEFF05460E4650465946424645
:10062000FFF798FF084305D0012004E02046394633
:10063000BDE8F08D0020054346EAE0762C433743C1
:100640000A986305E40AA0EB08000022FD0A44EAC8
:1006500047540A3002D500200146E9E70105101988
:100660006941DDE9084500196941BDE8F04DA2E79F
:1006700000BFFEE72DE9F14F0026724800780228FE
:100680007DD171A002F003F9009800F0BFFA07468F
:1006900027B174A002F0FBF8BDE8F88F002078497C
:1006A0000860012004F0F7F900207649C1F89401B0
:1006B000012004F0F0F901207349086004F0EBF91F
:1006C00000207049C1F89401012004F0E4F90120F0
:1006D0006B49086004F0DFF901206A49C1F8940110
:1006E00004F0D9F94FF0FF3668A002F0D0F80025E9
:1006F00083E0022004F0CFF900242DE000206249BD
:100700000860012004F0C7F96748006800F47F4AD8
:1007100001205C49C1F8940104F0BDF900205A4958
:100720000860012004F0B7F95F48006800F47F49D1
:100730004FEA29294AEA090801205249C1F89401DF
:100740004FEA1820594901F81400012101EB440136
:10075000564A02F80180641CB4F5A07FCED34FF452
:100760002071524803F0ECFA07467FB150A002F026
:100770008EF80A21284602F06DF854A000E05FE0F0
:1007800002F085F8524804F0CDFB85E7002411E023
:100790004648005D4640002009E006F0010119B11D
:1007A0004C4981EA560600E07608411CC8B2082888
:1007B000F3DB641CB4F5207FEAD33220B5FBF0F103
:1007C00000FB1150C0B9BDB143A002F060F80A218E
:1007D000284602F03FF844A002F059F805EB8500E6
:1007E000C0014FF4C061B0FBF1FB0A21584602F092
:1007F00031F841A002F04BF86D1CF02DFFF479AFF9
:10080000F643304603F050FA07461FB13CA002F011
:100810003EF841E700200B490870322004F02EF921
:100820003EA002F034F8464802F031F845A002F04C
:100830002EF80A21494802F00DF824A002F027F80A
:1008400000BF29E7140000200D0A5B53445D2043DC
:1008500072656174696E672066696C652E2E2E0D57
:100860000A000000E29C972046696C65206372656F
:100870006174696F6E206661696C6564210D0A00A0
:10088000AC01214200802142948121425B53445DAE
:1008900020436170747572696E6720746F205344D1
:1008A0002E2E2E0D0A000000080C01402805002005
:1008B000E29C97205772697465206572726F72208E
:1008C0006174206C696E6520000000000D0A000054
:1008D000FC0200202083B8ED202050726F67726503
:1008E00073733A20000000002F323430206C696EA0
:1008F000657320280000000025290D0A0000000073
:10090000E29C9720466F6F746572207772697465F8
:10091000206661696C6564210D0A00000D0A5B5355
:10092000445D20E29C93205361766520436F6D7097
:100930006C657465212046696C653A2000000000F2
:10094000A80700200D0A5B53445D20546F74616C4E
:100950002062797465733A2000000000125802008A
:100960002DE9F84F824600254F480078022870D1C3
:10097000504601F0CDFE00204C490860012004F0F3
:100980008AF800204A49C1F89401012004F083F854
:1009900001204849086004F07EF800204449C1F86D
:1009A0009401012004F077F801204049086004F028
:1009B00072F801203E49C1F8940104F06CF86D1EF4
:1009C000002651E0022004F066F800242BE000200D
:1009D00038490860012004F05EF83748006800F4E8
:1009E0007F4901203249C1F8940104F054F80020F5
:1009F00030490860012004F04EF82F48006800F4E8
:100A00007F484FEA282849EA080701202849C1F809
:100A10009401380A294901F81400012101EB44012D
:100A2000264A5754641CB4F5A07FD0D34FF42071EC
:100A3000224801F0F1FE002412E02048005D45400C
:100A400000200AE005F0010121B11D4981EA5505A8
:100A500001E026E06D08411CC8B20828F2DB641CE6
:100A6000B4F5207FE9D3761CF02EABD3ED43280EEE
:100A70008DF80000280C8DF80100280A8DF802007E
:100A8000E8B28DF803000421684601F0C5FE0DA010
:100A900001F0FDFE002004490870322003F0EEFF53
:100AA00000BFBDE8F88F000014000020AC01214217
:100AB0000080214294812142080C01402805002039
:100AC0002083B8ED0D0A494D4147455F454E440D21
:100AD0000A00000070B504460025012C04D0022C49
:100AE00013D0032C35D122E04FF400412A4800F006
:100AF000C9FA0821294800F0C5FA1021274800F05A
:100B0000C1FA27A001F0C3FE23E04FF400412248C0
:100B100000F0B8FA0821214800F0B2FA10211F486D
:100B200000F0B0FA23A001F0B2FE012511E04FF46D
:100B30000041194800F0A6FA0821184800F0A2FA6E
:100B40001021164800F09CFA20A001F0A0FE01251B
:100B500000BF00BF15B1C82003F090FF21A001F035
:100B600096FE24480078022802D10020214908700E
:100B700002E00A2003F082FF1E4800780228F8D124
:100B80002046FFF7EDFE1CA001F081FE4FF47A70C5
:100B900003F074FF70BD000000080140000C01402C
:100BA0004D6F64653A204E6F204C696768740D0A7A
:100BB000000000004D6F64653A2056697369626CED
:100BC00065204C696768740D0A0000004D6F64650C
:100BD0003A20496E667261726564204C6967687478
:100BE0000D0A0000436170747572696E672E2E2EB7
:100BF0000D0A0000140000204361707475726520B6
:100C0000436F6D706C657465210D0A0070B58EB010
:100C1000044621461E4800F037FA0A221C491D48A6
:100C200004F0DEF9054695B11BA001F030FE18482E
:100C300001F02DFE1FA001F02AFE0A21284601F036
:100C400009FE1FA001F023FE28460EB070BD22460B
:100C50001CA101A803F082F801A8FFF763FA064679
:100C60001F4B324601A90B4804F0A1FC054625B1F3
:100C7000084804F057F92846E7E71AA001F007FEF4
:100C8000034801F004FE1DA001F001FE0020DCE796
:100C9000A8070020FC020020E29C972046696C65B2
:100CA00020637265617465206661696C65643A20D1
:100CB0000000000020286572726F723A2000000068
:100CC000290D0A00494D475F53544152542C333289
:100CD000302C3234302C31362C25642C310D0A0066
:100CE0002C000020E29C932053442046696C652030
:100CF000437265617465643A2000000020284865ED
:100D000061646572207772697474656E290D0A00DA
:100D10007047000010B5042000F034F801281ED1FF
:100D20001148007802281ADA0F48007848B90020E4
:100D30000E49086001200E49C1F88C010D49086078
:100D400008E000200B4908600949C1F88C01012026
:100D50000649086004480078401C034908700420D4
:100D600000F00AF810BD0000140000208C012142A0
:100D70000000214280812142014908607047000043
:100D800014040140014600200022074B1B6803EABF
:100D90000102054B14331B680B4013B10AB101204B
:100DA00000E00020704700000004014000212349BA
:100DB0008279002A3AD00A46126803689A430B46A1
:100DC0001A600A1D126803689A430B1D1A600279A3
:100DD00011440A6803681A430A60184A0832126804
:100DE00003689A43154B08331A601A1D126803688A
:100DF0009A43124B0C331A604279102A0ED11A1FF3
:100E0000126803681A430D4B08331A601A1D1268E2
:100E100003681A43094B0C331A600DE00749427905
:100E200011440A6803681A430A6005E00279114414
:100E30000A6803689A430A60704700000004014092
:100E40000549096821F01001034A1160114609683B
:100E5000014311607047000000200240014600205D
:100E6000034A106800F03800084310607047000023
:100E70000020024030B500228B071C0F0F2303FA1D
:100E800004F20B4B8C1053F824309343084C8D1014
:100E900044F8253023468C1053F824308C07240F57
:100EA00000FA04F42343024C8D1044F8253030BD81
:100EB000080001402DE9F0410246002500260020EF
:100EC00000230024002791F803C00CF00F0591F8CF
:100ED00003C00CF0100CBCF1000F03D091F802C05D
:100EE0004CEA050591F800C0BCF1000F31D0146840
:100EF00000202BE04FF0010C0CFA00F3B1F800C019
:100F00000CEA03069E4220D183004FF00F0C0CFA2E
:100F100003F7BC4305FA03FC4CEA040491F803C050
:100F2000BCF1280F06D14FF0010C0CFA00FCC2F8FE
:100F300014C00AE091F803C0BCF1480F05D14FF08E
:100F4000010C0CFA00FCC2F810C0401C0828D1D3D8
:100F50001460B1F800C0BCF1FF0F34DD546800200C
:100F60002EE000F1080C4FF0010808FA0CF3B1F87C
:100F700000C00CEA03069E4221D183004FF00F0C03
:100F80000CFA03F7BC4305FA03FC4CEA040491F89D
:100F900003C0BCF1280F05D100F1080C08FA0CF8C9
:100FA000C2F8148091F803C0BCF1480F07D100F1DA
:100FB000080C4FF0010808FA0CF8C2F81080401C29
:100FC0000828CED35460BDE8F0810000F0B50A4691
:100FD000002300240021002500F00046B6F1004F58
:100FE00002D11D4EF16901E01B4E7168C0F303454B
:100FF00083B200F44016B6F5401F08D121F07061AD
:10100000154E766826F07066134F7E6012E000F48D
:101010008016B6F5801F06D1032606FA05F4A14313
:1010200041F0706106E0460D360103FA06F6B14361
:1010300041F0706122B1460D360103FA06F63143E4
:1010400000F00046B6F1004F02D1034EF16101E01D
:10105000014E7160F0BD000000000140024600201A
:1010600093680B400BB1012000E00020704702465E
:101070000020D3680B400BB1012000E00020704736
:10108000416170470161704770B505460C460848DC
:101090000088401C0649088004EBC40000EB0410E3
:1010A000098801EB800203A1284602F057FE70BDBB
:1010B00036000020494D475F253033642E444154AB
:1010C0000000000000BFFEE710B500244FF480715F
:1010D0003248FFF7C3FF70B9142003F0CFFC00BF04
:1010E0004FF480712D48FFF7B9FF0028F8D0142085
:1010F00003F0C4FC01244FF480412948FFF7AEFF00
:1011000070B9142003F0BAFC00BF4FF480412448AA
:10111000FFF7A4FF0028F8D0142003F0AFFC02244E
:101120004FF400411E48FFF799FF70B9142003F0F7
:10113000A5FC00BF4FF400411948FFF78FFF0028BE
:10114000F8D0142003F09AFC032440211548FFF73F
:1011500085FF68B9142003F091FC00BF40211148BD
:10116000FFF77CFF0028F9D0142003F087FC04244B
:1011700080210C48FFF772FF68B9142003F07EFC51
:1011800000BF80210748FFF769FF0028F9D014202D
:1011900003F074FC0524204610BD00000008014047
:1011A00000100140000C014008B501211C2000F096
:1011B00019FB48208DF8030003208DF802008003FE
:1011C000ADF8000069460948FFF774FE4FF48070DF
:1011D000ADF8000069460648FFF76CFEC020ADF888
:1011E000000069460348FFF765FE08BD0010014096
:1011F00000080140000C014008B501210C2000F05E
:10120000F1FA01211048FFF7E1FE10208DF80300EC
:1012100003208DF802004FF40040ADF8000069464D
:101220000A48FFF747FE1820ADF800006946084855
:10123000FFF740FE4FF400410448FFF723FF182159
:101240000348FFF71FFF08BD0002300000080140FF
:10125000000C014000BFFEE700B587B0012141F25C
:10126000040000F0BFFA2020ADF8180018208DF817
:101270001B0003208DF81A0006A92748FFF71AFE65
:101280008020ADF8180018208DF81B0003208DF881
:101290001A0006A92048FFF70DFE4020ADF81800FF
:1012A00004208DF81B0006A91B48FFF703FE102041
:1012B000ADF818008DF81B0003208DF81A0006A960
:1012C0001548FFF7F7FD10211348FFF7DBFE00205C
:1012D000ADF804004FF48270ADF806000020ADF8C0
:1012E0000800ADF80A00ADF80C004FF40070ADF83E
:1012F0000E000820ADF810000020ADF81200072005
:10130000ADF8140001A9054801F0CAF9012103480C
:1013100001F052F807B000BD000801400030014064
:1013200010B5044600BF02210A4801F0ABF90028BD
:10133000F9D02146074801F0B1F900BF0121054865
:1013400001F0A0F90028F9D0024801F0A4F9C0B2D8
:1013500010BD000000300140054909884FF6C772F2
:101360001140034A118011460988014311807047DA
:101370000030014010B510210148FFF781FE10BD7B
:101380000008014010B510210148FFF77BFE10BD99
:10139000000801407047000070B5002100230F22B3
:1013A000C47804B3154C246804F4E064C4F5E06424
:1013B000210AC1F10403CA40447804FA03F1847895
:1013C0001440214309010E4C0678A155047804F01D
:1013D0001F050124AC4005786D11AD0005F1E02535
:1013E000C5F8004109E0047804F01F050124AC4071
:1013F000044D0678761145F8264070BD0CED00E0EE
:1014000000E400E080E100E002490143024A11608B
:10141000704700000000FA050CED00E070B50446CE
:10142000002534B1012C06D0032C06D0042C08D1A1
:1014300005E0B02505E0982503E0182501E03025FA
:1014400000BF00BF2946552000F026FD70BD2DE9E4
:10145000F0410446802522265E2734B1012C08D0B5
:10146000032C0AD0042C10D10BE0402511262F2785
:101470000BE066251B264B2707E0992528267127B8
:1014800003E0C02533268D2700BF00BF29464F202B
:1014900000F002FD2946502000F0FEFC0021512002
:1014A00000F0FAFC3146522000F0F6FC3946532099
:1014B00000F0F2FC2946542000F0EEFC9E2158205A
:1014C00000F0EAFCBDE8F08170B50446402534B177
:1014D000012C06D0032C06D0042C08D105E03025C1
:1014E00005E0382503E0502501E0602500BF00BF7E
:1014F0002946562000F0D0FC70BD000038B501210F
:101500001D2000F06FF901214748FFF75FFD04201F
:10151000ADF8000048208DF8030003208DF802008C
:1015200069464248FFF7C6FC0820ADF800001020CD
:101530008DF8030003208DF8020069463B48FFF751
:10154000B9FC0120ADF8000010208DF80300032045
:101550008DF8020069463648FFF7ACFC4FF4006096
:10156000ADF8000010208DF8030003208DF8020074
:1015700069462E48FFF79EFC4FF48050ADF80000FE
:1015800010208DF8030003208DF8020069462748DB
:10159000FFF790FC2020ADF8000010208DF803002C
:1015A00003208DF8020069462148FFF783FC4FF4C1
:1015B0007F40ADF8000048208DF8030003208DF82F
:1015C000020069461A48FFF775FC00F0DFF80020BA
:1015D0001849086000F01EFB00240AE0164A02EBDE
:1015E00044025178144A12F8140000F055FC601CB3
:1015F000C4B2A82CF2D3002000F020F80320FFF79B
:1016000026FF0220FFF70AFF0420FFF75DFF0020FE
:1016100000F042F84FF4A073F022B0210C2000F04B
:1016200070F8002038BD00000002300000080140C2
:10163000000C0140B00121425E6600082DE9F04136
:101640000446E72500260027012C06D0022C08D0EE
:10165000032C0AD0042C10D10BE0E5255A265C2778
:101660000BE0E5255826602707E0E52584264C2772
:1016700003E0E5259626402700BF00BF294613203A
:1016800000F00AFC3146012000F006FC3946022039
:1016900000F002FCBDE8F0812DE9F041044604258C
:1016A000C0268027072C1DD2DFE804F01C04080C9C
:1016B0001014180024258026802713E01425802686
:1016C00080270FE01425C02680270BE01425402634
:1016D000402707E014258026C02703E01425A02614
:1016E000402700BF00BF29463A2000F0D5FB314615
:1016F000682000F0D1FB3946672000F0CDFBBDE843
:10170000F0812DE9F04705460E469046994605EBD7
:1017100048001FFA80FA06EB490087B2B7F5447F0C
:1017200002DDA7F5447087B2032000F003FB0446F6
:1017300004F0F0040AF00301284661F39F0004431B
:101740002146032000F0A8FBC5F38701192000F013
:10175000A3FBCAF387011A2000F09EFB322000F0A1
:10176000E9FA044604F0C00407F00701304661F3CB
:10177000DF000443C6F3C701172000F08DFBC7F359
:10178000C701182000F088FBBDE8F08708B50121EB
:10179000042000F027F84FF48070ADF8000003201B
:1017A0008DF8020018208DF8030069460348FFF702
:1017B00081FB062000F046F908BD0000000801404A
:1017C0007047000029B1064AD2690243044BDA612E
:1017D00004E0034AD2698243014BDA61704700009A
:1017E0000010024029B1064A92690243044B9A61F3
:1017F00004E0034A92698243014B9A6170470000FA
:101800000010024010B500F035F84FF4803000F0C1
:10181000F3F800F055F90446012C24D14FF4E011FF
:10182000000400F033F9002000F0DAF8A00200F024
:101830000FF9002000F018F90220FFF70FFB10202D
:10184000FFF7FEFA012000F01BF900BF392000F07D
:10185000A1F80028FAD0022000F026F900BF00F01D
:10186000B7F80828FBD1012144F27C00FFF7BAFF4A
:1018700010BD00000F48006840F001000D490860ED
:10188000084640680C4908400A4948600846006814
:101890000A490840074908600846006820F480208B
:1018A00008600846406820F4FE0048604FF41F00BE
:1018B00088607047001002400000FFF8FFFFF6FE4E
:1018C00030B500210022002400232D4D6D6805F065
:1018D0000C0121B1042905D0082923D105E0294DA7
:1018E000056022E0274D05601FE0254D6D6805F479
:1018F0007012234D6D6805F48034022505EB924289
:101900001CB9214D554305600BE01D4D6D6805F474
:1019100000351DB11C4D5543056002E0194D55437E
:10192000056002E0174D056000BF00BF144D6D68F3
:1019300005F0F0010909154D6B5C0568DD40456057
:101940000F4D6D6805F4E061090A104D6B5C456848
:10195000DD4085600A4D6D6805F46051C90A0B4D84
:101960006B5C4568DD40C560054D6D6805F4404120
:10197000890B074D6B5CC568B5FBF3F5056130BDA0
:101980000010024000127A0000093D000000002013
:101990001000002010B501460022002300204A114B
:1019A000012A02D1094C236806E0022A02D1074C21
:1019B000236A01E0054C636A01F01F020124944090
:1019C0001C400CB1012000E0002010BD00100240BE
:1019D0000248406800F00C00704700000010024010
:1019E00001460020034A506820F0F0000843506090
:1019F00070470000001002401149096821F480314D
:101A00000F4A11601146096821F480211160B0F578
:101A1000803F03D0B0F5802F0ED106E00849096859
:101A200041F48031064A116007E00549096841F434
:101A3000A021034A116000E000BF00BF7047000012
:101A4000001002400149C8717047000000100240B8
:101A500001460020034A506820F4E06008435060CB
:101A6000704700000010024001460020034A506801
:101A700020F4605040EAC1005060704700100240FE
:101A800001490866704700000000424202460020FB
:101A9000044B586820F47C1042EA01031843014BC0
:101AA000586070470010024001460020034A506809
:101AB00020F003000843506070470000001002400F
:101AC00038B5002000900024002500BF3120FFF72A
:101AD00061FF05460098401C00900098B0F5A06F8B
:101AE00001D0002DF2D03120FFF754FF08B10124BE
:101AF00000E00024204638BD30B5ADF5217D054617
:101B000001222946224803F06BFA04469CB121A029
:101B100000F0BDFE284600F0BAFE24A000F0B7FE9B
:101B20000A21204600F096FE23A000F0B0FE2046D9
:101B30000DF5217D30BD21A000F0A9FE284600F062
:101B4000A6FE24A000F0A3FE18E06B464FF420721E
:101B500001A90F4803F076FB04463CB11EA000F03B
:101B600096FE0B4803F0DEF92046E1E7009800B945
:101B700005E0009881B201A800F04EFEE5E700BF45
:101B8000034803F0CFF919A000F081FE0020CFE751
:101B9000FC020020E29C972046696C65206F70650E
:101BA0006E206661696C65643A20000020286572C9
:101BB000726F723A20000000290D0A00E29C932007
:101BC00052656164696E672066726F6D2053443A96
:101BD000200000000D0A0000E29C9720526561641D
:101BE000206572726F720D0A00000000E29C932063
:101BF00046696C65207265616420636F6D706C6509
:101C000074652C2073656E7420746F2050430D0A28
:101C10000000000008B501210C20FFF7E3FD0120C2
:101C2000ADF8000010208DF8030003208DF80200AD
:101C300069461248FFF73EF90220ADF8000048203F
:101C40008DF8030003208DF8020069460B48FFF76A
:101C500031F901210948FFF715FA02210748FFF77A
:101C600011FA0648006820F0F000044908600846B0
:101C7000006840F03000086008BD00000008014026
:101C800010B5322002F007FF01200B4908600B4914
:101C9000C1F88001322002F0FEFE00200649091F33
:101CA0000860322002F0F7FE00200449C1F88401E8
:101CB000322002F0F0FE10BD8401214200002142DA
:101CC00070B500241848006820F0F000164908603C
:101CD0000846006840F080000860082515E03220C2
:101CE00002F0D9FE0120114908606006040E104878
:101CF000D0F8040108B1601CC4B2322002F0CBFE5F
:101D000000200A490860681EC5B2002DE7DC0648BD
:101D1000006820F0F000044908600846006840F0C0
:101D200030000860204670BD00080140800121425B
:101D30000000214270B50446002500F023F842203F
:101D400000F054F8642002F0A6FE204600F04EF8A1
:101D5000642002F0A0FE00F02FF8642002F09BFE49
:101D600000F010F8432000F041F8642002F093FEE8
:101D7000FFF7A6FF0546FFF783FF00F01DF8284692
:101D800070BD000010B50120094908600949C1F87B
:101D90008001322002F07FFE0020054908603220D9
:101DA00002F079FE00200349C1F8800110BD000057
:101DB000840121420000214210B500200949086039
:101DC000322002F068FE01200749C1F8800132206C
:101DD00002F061FE012003490860322002F05BFE40
:101DE00010BD0000840121420000214270B504466C
:101DF00000261BE004F0800018B101202349086090
:101E000002E00020214908606006040E322002F042
:101E100042FE01201D49091F0860322002F03BFEEE
:101E200000201B49C1F88001701CC6B2082EE1DBFE
:101E30001848006820F0F00016490860084600685D
:101E400040F080000860322002F025FE01200F499A
:101E5000091F0860322002F01EFE0D48D0F8040170
:101E600008B1012500E0002500200849091F08608D
:101E70000848006820F0F00006490860084600683D
:101E800040F030000860284670BD00008401214207
:101E9000000021420008014070B505460C460026AE
:101EA000FFF770FF4220FFF7A1FF00B10126642079
:101EB00002F0F1FD2846FFF799FF00B101266420EA
:101EC00002F0E9FD2046FFF791FF00B10126FFF780
:101ED00073FF304670BD000010B5044624B91021D0
:101EE0000448FFF7CFF803E010210248FFF7C8F8D5
:101EF00010BD00000008014070B505460122002118
:101F0000092000F009FAC4B224B91021284600F0D3
:101F100081F804460020FFF7DFFF0CB1012070BDFF
:101F20000020FCE77FB56846FFF7E6FF10B1002010
:101F300004B070BD9DF8000000F0C000402809D139
:101F40009DF809009DF8081000EB0120401C84B2A8
:101F5000A50220E09DF8050000F00F009DF80A1092
:101F600000EBD1109DF8091001F0030100EB4100D6
:101F7000861C9DF8080080119DF8071000EB810079
:101F80009DF8061001F0030100EB8120441CA6F12E
:101F9000090004FA00F52846CAE700002DE9F041DF
:101FA00007460E4615461A480078062800D07602E5
:101FB000012D0CD101223146112000F0ADF9C4B23F
:101FC000FCB96902384600F025F8044619E0012200
:101FD0003146122000F0A0F9C4B200BF4FF40071E6
:101FE000384600F017F8044607F50077681EC0B2BF
:101FF000051E01D0002CF1D0012200210C2000F0A0
:102000008BF90020FFF768FF2046BDE8F081000053
:102010001F0000202DE9F04104460D460027012055
:10202000FFF75AFF00BFFF2004F02AFA06460A20F5
:1020300002F024FD781C87B2C82F05DD0020FFF7D1
:102040004BFF0120BDE8F081FE2EECD104E0FF2023
:1020500004F016FA2070641C281EA5F101018DB24F
:10206000F5D1FF2004F00CFAFF2004F009FA00205B
:10207000E8E72DE9F04107460D464FF0000800BFA4
:10208000FF2004F0FDF9064608F101001FFA80F870
:10209000B8F57A7F02DD0120BDE8F081FF2EEFD197
:1020A000284604F0EDF9FD2D19D0002404E0385D38
:1020B00004F0E6F9601C84B2B4F5007FF7DBFF2082
:1020C00004F0DEF9FF2004F0DBF9FF2004F0D8F97A
:1020D000044604F01F00052801D00220DCE70020A0
:1020E000DAE700002DE9F04106460F461546214883
:1020F0000078062800D07F02012D0CD1012239463C
:10210000182000F009F9C4B26CBBFE213046FFF77D
:10211000B0FF044627E017480078012809D00122C3
:102120000021372000F0F8F801222946172000F09E
:10213000F3F801223946192000F0EEF8C4B294B940
:1021400000BFFC213046FFF794FF044606F50076F9
:10215000681EC0B2051E01D0002CF2D0FD21002067
:10216000FFF787FF04460020FFF7B6FE2046BDE8D4
:10217000F08100001F0000207CB50020009001903D
:1021800000F0ACFA0020FFF7A7FE0A2002F076FC70
:10219000002405E05E48007804F072F9601C84B207
:1021A000142CF7DB002400BF95220021084600F024
:1021B000B3F8C5B2601C84B2C82C04DD0020FFF760
:1021C0008BFE01207CBD012DEED10020514908700D
:1021D00087224FF4D571082000F09EF8C5B2012D7A
:1021E00043D1002607E04A48007804F049F90DF889
:1021F0000600701CC6B2042EF5DB9DF80200012813
:1022000038D19DF80300AA2834D14FF6FE7400BFE0
:1022100001220021372000F07FF8012291072920B8
:1022200000F07AF8C5B225B1201EA4F101018CB2EC
:10223000EED1002C5FD0012200213A2000F06CF892
:10224000002858D1002606E0FF2004F019F90DF807
:102250000600701CC6B2042EF6DB9DF8000000F0EC
:10226000400018B106202B49087044E00420294999
:10227000087040E001220021372000F04DF80122D3
:102280000021292000F048F8C5B2012D17DC0220FA
:10229000204908704FF6FE7400BF0122002137204C
:1022A00000F03AF801220021292000F035F8C5B2EB
:1022B000BDB1201EA4F101018CB2EED111E00120CC
:1022C000144908704FF6FE7400BF01220021104629
:1022D00000F022F8C5B225B1201EA4F101018CB294
:1022E000F3D12CB101225102102000F015F810B1E9
:1022F0000020084908700020FFF7EEFD082000F0DC
:10230000EDF90448007808B100205BE7012059E7A7
:102310001D0000201F0000202DE9F04706460C4656
:1023200091460020FFF7D8FD142002F0A7FB012002
:10233000FFF7D2FD002500BF1E48007804F0A0F88A
:102340008046681C85B2B5F57A7F02DDFF20BDE8C6
:10235000F087B8F1FF0FEFD146F0400004F090F89D
:10236000200E04F08DF8C4F3074004F089F8C4F39C
:10237000072004F085F8E0B204F082F8484604F043
:102380007FF80C2E03D10B48007804F079F8002573
:1023900000BFFF2004F074F80746681C85B2B5F54D
:1023A0007A7F01DDFF20D2E707F080000028F0D11E
:1023B0003846CCE71D00002021B1028842F04002DF
:1023C000028004E002884FF6BF731A400280704713
:1023D00070B53DA000F05BFA42A000F058FA552419
:1023E0002046FEF79DFF054647A000F050FA022167
:1023F000204600F02FFA47A000F049FA02212846B3
:1024000000F028FA46A000F042FA51A000F03FFA8E
:102410001020FEF7A1FF56A000F039FA0820FEF7C1
:102420009BFF5BA000F033FA61A000F030FAFEF7EA
:10243000A1FF67A000F02BFA012002F01FFBFEF7BE
:10244000A1FF69A000F023FA6DA000F020FA72A0AD
:1024500000F01DFA10217448FEF709FE064601211E
:1024600000F0F8F939A000F012FA70A000F00FFAAD
:1024700020216D48FEF7FBFD0646012100F0EAF938
:1024800032A000F004FA6DA000F001FA4021664885
:10249000FEF7E4FD0646012100F0DCF92BA000F078
:1024A000F6F96BA000F0F3F980215F48FEF7DFFD3D
:1024B0000646012100F0CEF924A000F0E8F969A059
:1024C00000F0E5F970BD00000D0A3D3D3D20535080
:1024D000492046756C6C2054657374203D3D3D0D5C
:1024E0000A000000312E2054657374696E67205312
:1024F0005049205265616457726974654279746508
:102500002E2E2E0D0A00000020202054583A203094
:1025100078000000207C2052583A203078000000DB
:1025200020284E6F74653A205258206D61792062E0
:1025300065203078303020776974686F7574207347
:102540006C61766520646576696365290D0A000013
:10255000322E2054657374696E672053504920539E
:10256000657453706565642E2E2E0D0A0000000000
:1025700020202053706565642073657420746F207B
:1025800038207072657363616C65720D0A0000001B
:1025900020202053706565642073657420746F205B
:1025A00034207072657363616C65720D0A000000FF
:1025B000332E2054657374696E672053504920533D
:1025C000746172742F53746F702E2E2E0D0A0000DA
:1025D0002020205350492053746172742028535393
:1025E0003D4C6F77290D0A0020202053504920537D
:1025F000746F70202853533D48696768290D0A009D
:10260000342E204750494F2050696E205374617416
:1026100075733A0D0A0000002020205041342853E1
:1026200053293A2030780000000801402020205033
:1026300041352853434B293A203078002020205040
:102640004136284D49534F293A2030780000000088
:10265000202020504137284D4F5349293A203078C7
:10266000000000000D0A3D3D3D20535049205465B7
:10267000737420436F6D706C657465203D3D3D0D36
:102680000A0000000246002013890B400BB1012014
:1026900000E00020704701468889704781817047BB
:1026A00010B50022028802F441520B884C88234363
:1026B0008C882343CC8823430C8923434C892343B0
:1026C0008C892343CC8923431A430280838B4FF2A6
:1026D000FF74234083830B8A038210BD10B5044628
:1026E00000210948FFF768FE074800884FF6C771C8
:1026F00008400549088008460088204308800121D9
:102700000148FFF759FE10BD00300140704700003E
:1027100010B58EB00446224605A101A801F01EFBAB
:1027200001A800F0B4F8052002F0A8F90EB010BD21
:10273000494D475F53544152542C3332302C32347C
:10274000302C31362C25642C310D0A0000B587B0B1
:1027500001218803FFF746F801210420FFF742F822
:1027600018208DF81B004FF40070ADF818000320FE
:102770008DF81A0006A92148FEF79CFB48208DF829
:102780001B004FF48060ADF8180003208DF81A008C
:1027900006A91A48FEF78EFB4FF461200290002034
:1027A000ADF814000C20ADF812000020ADF81000B8
:1027B000ADF80E00ADF80C0002A9114801F06CF95B
:1027C000012240F225510E4801F040F94FF4A0607B
:1027D000FEF71AFE25208DF8040001208DF8070071
:1027E0008DF805008DF8060001A8FEF7D5FD012142
:1027F000034801F0E8F807B000BD00000008014000
:102800000038014010B50246012000E050430B1E85
:10281000A1F10101FAD110BD70B505460E460024A4
:1028200004E0285D00F006F8601C84B2B442F8DBD6
:1028300070BD000010B504462146054801F09DF921
:1028400000BF8021024801F0CAF80028F9D010BD6D
:10285000003801402DE9F04106460C46002512E003
:10286000601B411E0A20FFF7CDFFB6FBF0F00A21E6
:10287000B0FBF1F201FB120000F130073846FFF720
:10288000D9FF681CC5B2A542EADBBDE8F08170B58E
:102890000446002504E0605DFFF7CCFF681CC5B26C
:1028A000605D0028F7D170BD10B500F001F810BDD3
:1028B0000CB50020019000903348006840F480304F
:1028C0003149086000BF3048006800F400300090D3
:1028D0000198401C0190009818B90198B0F5A06FBC
:1028E000F1D12948006800F4003010B101200090B7
:1028F00001E0002000900098012843D1234800689F
:1029000040F01000214908600846006820F00300EC
:1029100008600846006840F0020008601A484068F5
:10292000194948600846406848600846406840F4D5
:10293000806048600846406820F47C104860084683
:10294000406840F4E81048600846006840F0807035
:10295000086000BF0C48006800F000700028F9D043
:102960000948406820F0030007494860084640686D
:1029700040F00200486000BF0348406800F00C00CF
:102980000828F9D10CBD00000010024000200240D0
:102990007047000010B51348006840F0010011496D
:1029A000086008464068104908400E4948600846DB
:1029B00000680E4908400B4908600846006820F48A
:1029C000802008600846406820F4FE0048604FF40C
:1029D0001F008860FFF768FF4FF00060044908603F
:1029E00010BD0000001002400000FFF8FFFFF6FEDF
:1029F00008ED00E010B50121880700F04CF801282F
:102A000005D1034908700121800700F035F810BD99
:102A1000160000201FB501210846FEF7D3FE4FF433
:102A2000A060FEF7F1FC42F20F70ADF8080041F62D
:102A30001F40ADF804000020ADF80A00ADF8060014
:102A400001A94FF0804000F041F80121880700F013
:102A500016F801221146900700F02EF81C208DF880
:102A6000000001208DF802008DF801008DF80300B0
:102A70006846FEF791FC1FBDCA430282704721B130
:102A8000028842F00102028004E002884FF6FE73E1
:102A90001A400280704730B502460020002300240F
:102AA000158A05EA0103958905EA010413B10CB101
:102AB000012000E0002030BD1AB183890B438381DF
:102AC00002E083898B4383817047000000220288E3
:102AD0001D4B98420ED01D4B98420BD0B0F1804F49
:102AE00008D01B4B984205D01A4B984202D01A4B83
:102AF000984204D14FF68F731A404B881A43174BF4
:102B0000984207D0164B984204D04FF6FF431A4024
:102B1000CB881A4302808B8883850B8803850A4BF8
:102B200098420BD0094B984208D00E4B984205D0E2
:102B30000D4B984202D00D4B984201D10B7A03867F
:102B40000123838270470000002C014000340140C3
:102B50000004004000080040000C0040001000404D
:102B60000014004000400140004401400048014082
:102B700030B5ADF51F7D8CA0FFF789FE90A0FFF763
:102B800086FE012295A1964802F0F8F99549087051
:102B90000846007818B994A0FFF779FE0DE099A0D7
:102BA000FFF775FE0A218F480078FFF753FE83A0D8
:102BB000FFF76DFE0DF51F7D30BD9AA0FFF767FE94
:102BC0000A22A2A1A44802F00BFA8649087008461E
:102BD0000078002821D1A1A0FFF759FEA5A4204626
:102BE000FDF7A0FA0546AD4B2A4621469A4802F069
:102BF000DEFC7C4908700846007850B9A8A0FFF7B1
:102C000046FE0A21A5480068FFF724FEAAA0FFF7A8
:102C10003EFE914802F086F90AE0AAA0FFF737FECF
:102C20000A2170480078FFF715FE64A0FFF72FFE19
:102C3000ACA0FFF72CFE012284A1874802F0D0F956
:102C4000684908700846007808BBAD4B3F2201A9CF
:102C5000814802F0F7FA634908700846007890B995
:102C6000002001A9A64A12688854A6A0FFF70FFE0B
:102C70000A21A3480068FFF7EDFDA6A0FFF707FEB5
:102C800001A8FFF704FE744802F04CF90AE0A4A082
:102C9000FFF7FDFD0A2153480078FFF7DBFD47A051
:102CA000FFF7F5FDA5A0FFF7F2FD122267A16A4824
:102CB00002F096F94B49087008460078F0B9A6A4CE
:102CC0002046FDF72FFA0546744B2A4621466248F6
:102CD00002F06DFC434908700846007850B9A5A081
:102CE000FFF7D5FD0A216D480068FFF7B3FD72A01C
:102CF000FFF7CDFD584802F015F900BFA2A0FFF77D
:102D0000C6FD99A951A002F0CDFB364908700846CE
:102D1000007848B9A0A0FFF7BAFD0A219998FFF7FB
:102D200099FD65A0FFF7B3FD9EA0FFF7B0FD2BA1B5
:102D300011A802F034FA2B490870084600780028E0
:102D40002CD126E099A911A802F07EFB2549087034
:102D50000846007810B99DF86D0200B91AE09DF898
:102D60006C0200F0100018B196A0FFF790FD02E091
:102D700097A0FFF78CFD0DF26D20FFF788FD97A05F
:102D8000FFF785FD0A219998FFF764FD94A0FFF7EE
:102D90007EFDD7E700BF11A802F0DBF893A0FFF794
:102DA00076FD00BF06E700000D0A3D3D3D2046418F
:102DB0005446532054657374203D3D3D0D0A000078
:102DC000312E204D6F756E74696E672066696C6573
:102DD00073797374656D2E2E2E0D0A0000000000AD
:102DE000CC00002029000020202020E29C932046D7
:102DF000696C6573797374656D206D6F756E74653C
:102E0000640D0A00202020E29C97204D6F756E749F
:102E1000206661696C65642C206572726F723A205D
:102E200000000000322E204372656174696E6720D5
:102E3000746573742066696C652028746573742EDC
:102E4000747874292E2E2E0D0A0000007465737498
:102E50002E74787400000000FC020020202020E284
:102E60009C932046696C6520637265617465640D8E
:102E70000A00000048656C6C6F2066726F6D20530D
:102E8000544D3332205374616E64617264204C6916
:102E90006272617279210D0A000000002C0000208E
:102EA000202020E29C932044617461207772697431
:102EB00074656E3A200000002062797465730D0A13
:102EC00000000000202020E29C972043726561747E
:102ED00065206661696C65642C206572726F723A58
:102EE00020000000332E2052656164696E672074F3
:102EF0006573742066696C652E2E2E0D0A00000025
:102F000030000020202020E29C9320526561642044
:102F1000000000002062797465733A200000000010
:102F2000202020E29C972052656164206661696CD4
:102F300065642C206572726F723A2000342E204135
:102F40007070656E64696E6720746F2066696C6569
:102F50002E2E2E0D0A00000054686973206973201C
:102F6000617070656E64656420646174612E0D0A21
:102F700000000000202020E29C9320417070656ECC
:102F80006465642000000000352E2046696C6520D1
:102F9000696E666F3A0D0A0020202053697A653AFF
:102FA00020000000362E20526F6F74206469726515
:102FB00063746F7279206C697374696E673A0D0A75
:102FC000000000002020205B4449525D20200000CA
:102FD0002020205B46494C455D2000002028000051
:102FE000206279746573290D0A0000000D0A3D3DC9
:102FF0003D204641544653205465737420436F6D01
:10300000706C657465203D3D3D0D0A0010B51CA037
:10301000FFF73DFC22A0FFF73AFC0020FEF75CFF23
:10302000012001F02BFD28A0FFF731FC10212B48D7
:10303000FEF71DF804460121FFF70CFC17A0FFF76F
:1030400026FC27A0FFF723FC0120FEF745FF012007
:1030500001F014FD1CA0FFF71AFC10211F48FEF719
:1030600006F804460121FFF7F5FB0CA0FFF70FFC63
:103070000020FEF731FF24A0FFF709FC10BD00007F
:103080000D0A3D3D3D20534420435320436F6E7451
:10309000726F6C2054657374203D3D3D0D0A000035
:1030A000312E2053445F4353283029202D20435391
:1030B000203D2048494748202852656C656173656A
:1030C000292E2E2E0D0A000020202050413420737E
:1030D000746174653A2030780000000000080140F7
:1030E000322E2053445F4353283129202D2043534F
:1030F000203D204C4F57202853656C656374292E62
:103100002E2E0D0A000000000D0A3D3D3D205344C7
:1031100020435320436F6E74726F6C205465737438
:1031200020436F6D706C657465203D3D3D0D0A0058
:1031300070B52BA0FFF7ABFBFEF78EF832A0FFF7C0
:10314000A6FB36A0FFF7A3FBFFF716F80546002DF8
:103150003FD139A0FFF79BFB41A0FFF798FB434805
:103160000078012806D0022808D004280AD00628B2
:1031700010D10BE03EA0FFF78AFB0FE03EA0FFF767
:1031800086FB0BE03FA0FFF782FB07E040A0FFF7C4
:103190007EFB03E040A0FFF77AFB00BF00BFFEF715
:1031A000C1FE04463FA0FFF772FB0A212046FFF74D
:1031B00051FB19A0FFF76BFB3FA0FFF768FBC4F3BF
:1031C0005501880A0A21FFF745FB3FA0FFF75FFB87
:1031D00002E03FA0FFF75BFB47A0FFF758FB70BD85
:1031E0000D0A3D3D3D205344204361726420496EE9
:1031F000697469616C697A6174696F6E2054657372
:1032000074203D3D3D0D0A005350493120696E69DF
:103210007469616C697A65640D0A0000496E6974AD
:1032200069616C697A696E672053442063617264D6
:103230002E2E2E0D0A000000E29C932053442043C2
:1032400061726420496E697469616C697A65642091
:103250005375636365737366756C6C79210D0A0031
:103260002020534420547970653A20001F0000202C
:103270004D4D430D0A00000053442056312E780D69
:103280000A00000053442056322E300D0A00000080
:10329000534448430D0A0000556E6B6E6F776E0DF8
:1032A0000A0000002020536563746F7220436F751D
:1032B0006E743A2000000000202043617061636951
:1032C00074793A2000000000204D420D0A000000F1
:1032D000E29C97205344204361726420496E6974D4
:1032E00069616C697A6174696F6E204661696C65A9
:1032F00064210D0A000000000D0A3D3D3D205344AD
:1033000020496E6974205465737420436F6D706C2E
:10331000657465203D3D3D0D0A00000070B5ADF5BA
:10332000267D33A0FFF7B3FA3DA0FFF7B0FA0120E6
:10333000FDF76CFC04462CB141A0FFF7A8FA0DF58F
:10334000267D70BD43A0FFF7A2FA002002E006AA86
:103350001054401CB0F5207FF9DB002605E04FF447
:10336000207106A800F0ECFC761C0A2EF7DB43A0C7
:10337000FFF78DFA49A0FFF78AFA504D284600F072
:1033800093FC4FA0FFF783FA5748FEF7B5FB0446BE
:103390001CB156A0FFF77BFAD1E759A0FFF777FAE7
:1033A0006946514802F07EF80446002C1BD15CA00F
:1033B000FFF76DFA4C48FFF76AFA5DA0FFF767FA6E
:1033C0000A210098FFF746FA5EA0FFF760FA41F67F
:1033D00012110098884203D15DA0FFF758FA02E06D
:1033E00063A0FFF754FA69A0FFF751FA00BFA6E700
:1033F0000D0A3D3D3D205344E58DA1E785A7E789B2
:1034000087E5AD98E582A8E6B58BE8AF952028E979
:1034100098B6E6AEB531263229203D3D3D0D0A0075
:10342000E6B58BE8AF9531EFBC9AE5889BE5BBBA72
:10343000E785A7E78987E69687E4BBB60D0A000013
:10344000E29C9720E6B58BE8AF9531E5A4B1E8B4EE
:10345000A50D0A00E6B58BE8AF9532EFBC9AE5867C
:1034600099E585A5E6A8A1E68B9FE59BBEE5838F40
:10347000E695B0E68DAE0D0A000000002020E29C2B
:103480009320E58699E585A53130E8A18CE6B58BDA
:10349000E8AF95E695B0E68DAE0D0A00E6B58BE88F
:1034A000AF9533EFBC9AE58699E585A5435243E590
:1034B000928CE5B8A7E5B0BE0D0A0000785634122C
:1034C000E6B58BE8AF9534EFBC9AE8AFBBE58F96D5
:1034D000E69687E4BBB6E5B9B6E58F91E98081E56C
:1034E00088B050430D0A0000A8070020E29C9720F6
:1034F000E6B58BE8AF9534E5A4B1E8B4A50D0A00B4
:10350000E6B58BE8AF9535EFBC9AE9AA8CE8AF81B8
:10351000E69687E4BBB6E4BFA1E681AF0D0A0000E2
:103520002020E69687E4BBB6E5908D3A20000000A7
:103530000D0A2020E69687E4BBB6E5A4A7E5B08F88
:103540003A2000002062797465730D0A00000000C3
:103550002020E29C9320E69687E4BBB6E5A4A7E58D
:10356000B08FE6ADA3E7A1AEEFBC810D0A0000006D
:103570002020E29C9720E69687E4BBB6E5A4A7E569
:10358000B08FE5BC82E5B8B80D0A00000D0A3D3DDC
:103590003D205344E58DA1E785A7E78987E5AD98F0
:1035A000E582A8E6B58BE8AF95E5AE8CE68890207D
:1035B0003D3D3D0D0A00000070B52FA0FFF767F9F3
:1035C00036A0FFF764F95525284602F059FF064654
:1035D0003BA0FFF75CF902212846FFF73BF93BA02F
:1035E000FFF755F902213046FFF734F93AA0FFF70B
:1035F0004EF93AA0FFF74BF9AA25284602F040FF02
:1036000006462FA0FFF743F902212846FFF722F9CB
:103610002EA0FFF73CF902213046FFF71BF92EA040
:10362000FFF735F936A0FFF732F900241DE0E5B2C7
:10363000284602F025FF06463DA0FFF728F90121A4
:103640002046FFF707F93CA0FFF721F902212846A1
:10365000FFF700F93AA0FFF71AF902213046FFF709
:10366000F9F81DA0FFF713F9641C0A2CDFDB36A064
:10367000FFF70DF970BD00000D0A3D3D3D2053449C
:103680002053504920526561645772697465205413
:10369000657374203D3D3D0D0A000000312E20541D
:1036A000657374696E67207370695F7265616477B2
:1036B000726974652830783535292E2E2E0D0A0052
:1036C00020202054583A203078000000207C2052DE
:1036D000583A2030780000000D0A0000322E2054A5
:1036E000657374696E67207370695F726561647772
:1036F000726974652830784141292E2E2E0D0A00FA
:10370000332E2054657374696E6720636F6E74691D
:103710006E756F7573207265616477726974652068
:103720002831302074696D6573292E2E2E0D0A0004
:10373000202020693D0000002054583A30780000D5
:103740002052583A307800000D0A3D3D3D20534448
:103750002053504920526561645772697465205442
:1037600065737420436F6D706C657465203D3D3DDD
:103770000D0A000010B514A0FFF789F81BA0FFF791
:1037800086F83820FEF7AAFF22A0FFF780F8244928
:1037900008880421FFF75EF81DA0FFF778F821A044
:1037A000FFF775F80820FEF799FF1AA0FFF76FF8EA
:1037B0001B4908880421FFF74DF815A0FFF767F8AB
:1037C00022A0FFF764F810BD0D0A3D3D3D20534493
:1037D00020535049205365745370656564205465C7
:1037E0007374203D3D3D0D0A00000000312E205332
:1037F000657474696E6720737065656420746F20EA
:10380000323536207072657363616C65722E2E2EB0
:103810000D0A0000202020435231203D2030780046
:1038200000300140322E2053657474696E67207336
:103830007065656420746F203420707265736361F5
:103840006C65722E2E2E0D0A000000000D0A3D3D03
:103850003D2053442053504920536574537065658F
:1038600064205465737420436F6D706C65746520BB
:103870003D3D3D0D0A00000010B5FDF7EDFC104880
:10388000048804F00400B8B104F04000A0B1C4F30F
:10389000C200012810D10BA0FEF7F9FFAA200849A9
:1038A000888100BF0648008900F080000028F9D117
:1038B00009A0FEF7ECFF02E00DA0FEF7E8FF10BD47
:1038C00000300140E29C93205350493120496E69F9
:1038D00074204F4B0D0A0000E29C93205350493155
:1038E0002053656E742030784141204F4B0D0A0003
:1038F000E29C97205350493120496E6974204661FB
:10390000696C65640D0A000010B540F2255121482C
:1039100000F072F801283CD11E4800F029F9C4B229
:103920001D48007858B9402C2DD11C48007850BB58
:1039300001201949087000201949087023E0164831
:10394000007801280FD10D2C03D1022012490870F4
:1039500019E0144812490978445411480078401C71
:103960000F4908700FE00C48007802280BD10A2C90
:1039700009D10020084908700A49094A1278885478
:1039800001200649087040F22551024800F00CF869
:1039900000BF10BD003801401B0000201A000020AD
:1039A0001C0000205000002010B50022002340F62B
:1039B0006A14A14200D100BF0A1201249440A3B2AC
:1039C000DC43048010BD21B1828942F4005282811F
:1039D00004E082894DF6FF731A40828170470246E7
:1039E0000020B1F5007F00D100BF13880B400BB160
:1039F000012000E00020704770B50246002400233B
:103A00000025002040F66A16B14200D100BFC1F384
:103A1000421501F01F03012606FA03F3012D02D11E
:103A20009689334006E0022D02D1168A334001E028
:103A3000968A33400C12012606FA04F416883440A4
:103A400013B10CB1012000E0002070BDF0B50346B9
:103A5000002400260025002040F66A17B94200D154
:103A600000BF1846C1F3421401F01F06012707FAF0
:103A700006F5012C01D10C3004E0022C01D11030EC
:103A800000E014301AB107682F43076002E00768AE
:103A9000AF430760F0BD00002DE9F04786B0054652
:103AA0000E460024A24600BFA1460027B08900B1FF
:103AB00000BF2F462C8A4CF6FF700440F088044368
:103AC0002C82AC894EF6F3100440B088318908434B
:103AD000718908430443AC81AC8A4FF6FF4004402F
:103AE000B0890443AC8201A8FDF7EAFE1F48874273
:103AF00002D1DDF810A001E0DDF80CA0A88900F4E7
:103B0000004040B10AEBCA0000EB0A1031684900DE
:103B1000B0FBF1F807E00AEBCA0000EB0A103168CD
:103B20008900B0FBF1F86420B8FBF0F00401200933
:103B3000642101FB1089A88900F4004040B13220C3
:103B400000EBC900B0FBF1F000F00700044308E00F
:103B5000322000EB09106421B0FBF1F000F00F00FF
:103B600004432C8106B0BDE8F08700000038014016
:103B700001468888C0F308007047C1F308028280BC
:103B8000704770B50546FEF7F7FA044644B10020C9
:103B9000FEF7A4FDFF2002F073FC0820FEF79EFD57
:103BA0000CB1012070BD0020FCE72DE9F0418046FA
:103BB0000F46154637B1012F2AD0022F1FD0032FF1
:103BC0002BD121E00120FEF787F9002600BF142049
:103BD00000F054FF701C86B2642E06DD0124002024
:103BE000FEF77AF92046BDE8F081FF2002F048FC9C
:103BF000FF28ECD100240020FEF76EF90FE04FF40F
:103C00000070288000240AE008202880002406E0B4
:103C1000FEF788F92860002401E0042400BF00BFFB
:103C20002046E0E72DE9F04106460F4690461C4647
:103C300014B90420BDE8F08156B9E2B241463846D5
:103C4000FEF7ACF905460DB90020F3E70120F1E7D6
:103C50000120EFE7014621B1012904D0022906D154
:103C600003E0002070470020FCE70020FAE7012075
:103C7000F8E72DE9F04106460F4690461C4614B978
:103C80000420BDE8F08156B9E2B241463846FEF75D
:103C900029FA05460DB90020F3E70120F1E70120DC
:103CA000EFE700BFFEE70000F8B5044612A5200EBE
:103CB0008DF80000200C8DF80100200A8DF802001C
:103CC000E0B28DF80300104B042269460F4801F062
:103CD0006EFC2846FCF726FA06460B4B3246294670
:103CE0000A4801F064FC094801F01CF908A0FEF73D
:103CF000CEFD0020F8BD00000D0A494D4147455F4B
:103D0000454E440D0A0000002C000020FC0200205B
:103D1000E29C932043524320616E64204672616DA1
:103D20006520456E64207772697474656E2C206618
:103D3000696C6520636C6F7365640D0A0000000098
:103D400070B504460D46034B2A462146024801F051
:103D50002EFC70BD2C000020FC0200200FB4084B8C
:103D600010B504A902AA039800F0DEF8044602A9DF
:103D7000002000F070FC204610BC5DF814FB000031
:103D80005746000802E008C8121F08C1002AFAD1ED
:103D900070477047002001E001C1121F002AFBD1CB
:103DA000704700002DE9FF5F82B00021DDE904309B
:103DB000020DDDF840B0034318D044F61050A2F2D3
:103DC000FF3242431514119801281FD0A5EB0B00B8
:103DD000401C5FEA000A4FF000064E4FDFF83891B2
:103DE000B046504615D5CAF1000413E011980124DD
:103DF0004AA3012801D16FEA0B010298119AC0E988
:103E00000031C0E9024206B0BDE8F09FCBF10000EE
:103E1000DFE704460021404A491842EB0450CDE94F
:103E2000001012E0E00707D032463B4640464946C4
:103E3000FCF76DFA8046894632463B4610461946E5
:103E4000FCF765FA06460F466410002CEAD1DDE95E
:103E50000401DDE90023BAF1000F06DAFCF757FA96
:103E600042464B46FCF753FA05E0FCF7C2FA4246DD
:103E70004B46FCF7BEFA04460E460022284BFCF7E0
:103E80003FFB03D84FF0FF30014607E00022254BEF
:103E900020463146FCF794F9FCF71AFB102409E0A0
:103EA000002C0ADB0A220023FCF759F9039B30326D
:103EB0001A55641E50EA0102F2D1641C039AC4F13F
:103EC00011031444119A012A03D0012208430DD191
:103ED0000AE0084304D000204FF0110B119072E764
:103EE000A3EB0B056D1E0DE05B4504DD4FF00002FA
:103EF00005F1010504E003DA4FF00002A5F1010528
:103F0000002AECD002981199C0E90231C0E90045BD
:103F100079E70000000014400000F03F300000008E
:103F20000000F0430000E03F2DE9FF4F95B09B46B5
:103F30008946064600250FE2252877D1002427462A
:103F4000F84A0121059400E0044316F8013F203BA4
:103F500001FA03F01042F7D130782A2811D06FF01F
:103F60002F033078A0F13002092A16D8059A44F0C0
:103F7000020402EB820203EB42021044761C05901D
:103F8000EFE759F8042B0592002A03DA504244F473
:103F90000054059044F00204761C30782E2816D187
:103FA00016F8010F44F004042A280DD06FF02F02F8
:103FB0003078A0F13003092B09D807EB870302EB17
:103FC0004303C718761CF3E759F8047B761C307856
:103FD0006C280FD006DC4C2817D068280DD06A2832
:103FE00014D104E0742810D07A280FD10DE044F4E5
:103FF00000140AE044F4801401E044F440147278A0
:10400000824202D104F58014761C761C3078662832
:104010000BD013DC582877D009DC002875D0452850
:10402000F6D04628F4D047281AD19DE118E063283D
:1040300035D0642879D0652812D195E1702873D0E5
:1040400008DC6728F1D069286FD06E280DD06F2862
:1040500006D1B5E073282CD0752875D0782874D097
:104060005A46179990476D1C75E1C4F30250022817
:1040700009D003280DD0D9F8001004280DD00D6008
:1040800009F1040967E1D9F80010EA17C1E9005203
:10409000F6E7D9F800100D80F2E70D70F0E719F897
:1040A000041B8DF8001000208DF80100EA46012065
:1040B00003E059F804AB4FF0FF3061074FF0000107
:1040C00002D40DE008F101018846B9420FDA8045BB
:1040D000F8DB1AF808100029F4D108E008F1010112
:1040E00088468142FADB1AF808100029F6D10598B3
:1040F0005B46A0EB080721463846179A00F094FA71
:10410000284400EB080507E04DE029E10DE01AF82E
:10411000010B5A4617999047B8F10108F7D25B4650
:1041200021463846179A13E142E00A220092C4F36E
:1041300002524FF0000A022A08D059F804CB032A91
:104140004FEAEC710AD00DE029E02AE009F10701FD
:1041500021F00702F2E802C1914609E00FFA8CFC57
:104160004FEAEC71042A03D14FFA8CFC4FEAEC7150
:10417000002907DA0A460021DCF1000C61EB02019C
:104180002D2202E0220504D52B228DF804200122E5
:1041900003E0E20701D02022F7E7904659E00A2128
:1041A00002E010220DE010214FF0000A00910BE018
:1041B00010224FF0000A44F004040827009203E0A4
:1041C00008224FF0000A0092C4F30252022A05D0DE
:1041D00059F804CB0021032A08D009E009F10701AE
:1041E00021F00702F2E802C1914605E01FFA8CFCBB
:1041F000042A01D10CF0FF0C4FF00008220728D54B
:10420000702806D0009B83F0100353EA0A0305D000
:104210000EE040228DF80420012208E05CEA010251
:1042200006D030228DF804208DF805000222904639
:10423000009B83F0080353EA0A030AD15CEA0102F7
:1042400001D1620705D530228DF804204FF0010816
:104250007F1E582804D034A003900EA802900DE0D1
:1042600036A0F9E753466046009AFBF778FF84468C
:104270000398825C0298401E029002705CEA010082
:10428000F0D1029806A9081A00F1200A600702D5A9
:1042900024F4803400E00127574502DDA7EB0A0033
:1042A00000E0002000EB0A01009005984144401A0C
:1042B0000590E00306D45B462146179A059800F066
:1042C000B3F90544002706E001A85A46C05D1799D6
:1042D00090476D1C7F1C4745F6DBE0030CD55B4621
:1042E0002146179A059800F09FF9054404E0302014
:1042F0005A46179990476D1C0099481E0090002956
:10430000F5DC08E0029802995A460078491C0291AF
:10431000179990476D1CBAF10001AAF1010AF1DC6E
:1043200065E1000009280100303132333435363779
:1043300038396162636465660000000030313233F1
:104340003435363738394142434445460000000091
:1043500000F058F90544761C307800287FF4ECAD65
:1043600019B02846BDE8F08F620700D4062709F18E
:10437000070222F0070CFCE80223E14603F00048A4
:104380005FEA080C02D00FF2702C0DE05FEA045CCB
:1043900002D50FF2682C07E05FEAC47C02D00FF26E
:1043A000602C01E0AFF2700C4FF0FF3823F00043B7
:1043B000CDF850C065280CD006DC452809D0462829
:1043C0001DD047283DD13DE0662818D067287ED112
:1043D00038E00021112F01DB112000E0781CCDE92D
:1043E000000106A90EA8FFF7DDFCDDE90F010E9A1A
:1043F00003910021009207F1010A04914DE04FF072
:1044000000400097CDE9011006A90EA8FFF7CAFCED
:10441000DDE90F0203920E9B11990022DDF80CA03A
:104420000093049211B9791C00EB010AB7EB0A0062
:1044300004D4C0F1FF3007F1010A0490AAEB070091
:10444000019044E0012F00DA01270021112F01DD46
:10445000112000E03846CDE9000106A90EA8FFF7BB
:10446000A1FCDDE90F010E9A039100210491009255
:10447000BA4621070CD40399514500DA8A46BAF1AD
:10448000010F05DD009AAAF10101515C302908D025
:10449000B84202DA10F1040F06DA0121CDE9011069
:1044A00015E0AAF10101E9E7002805DC04990144BF
:1044B0000491AAEB000102E0411C514500DD8A464F
:1044C0000499401A401C01904FF0004002902007D0
:1044D00004D40198504501DBCDF8048000208DF80C
:1044E0004F0002980DF14F07B0F1004F25D02B205F
:1044F0000E9002984FF0020800280CDA4042029019
:104500002D200E9007E00A210298FBF712FE3031B1
:10451000029007F8011DB8F10001A8F10108F2DCD2
:1045200002980028EFD1791E0E980870307800F0BC
:10453000200040F0450007F8020D12A8C01B00F152
:1045400007081498007800B1012000EB0A010198D7
:1045500001EBE07105984144401A401E0590E003CC
:1045600006D45B462146179A059800F05DF805448D
:104570001498007818B15A46179990476D1CE003BB
:1045800024D55B462146179A059800F04DF805445E
:104590001CE00498002807DBDDE90301884203DD05
:1045A0000098405C179901E0179930205A469047CF
:1045B000049805F10105401C04900198401E0190EB
:1045C00004D12E205A46179990476D1CBAF100016C
:1045D000AAF1010ADDDC05E017F8010B5A4617992C
:1045E00090476D1CB8F10001A8F10108F4DC5B46AE
:1045F0002146179A0598ABE62D0000002B0000001D
:10460000200000002DE9F041044600251E46174613
:10461000880404D405E039462020B0476D1C641E90
:10462000F9D52846BDE8F0812DE9F0410446002582
:104630001E469046C80301D5302700E02027880495
:1046400004D505E041463846B0476D1C641EF9D5D7
:104650002846BDE8F0810A68531C0B601070704753
:1046600070B504460D46002084F80402401EC4F8CC
:104670002C022946204601F007FE08B1032070BD38
:1046800094F8FE1140F2FF10005D41EA00204AF666
:104690005521884201D00220F1E73920005D010652
:1046A0003820005D41EA00413720005D41EA0020EA
:1046B00094F83610084320F07F400E49884201D11B
:1046C0000020DCE75520005D01065420005D41EA32
:1046D00000415320005D41EA002094F85210084345
:1046E00020F07F400349884201D10020C7E7012024
:1046F000C5E7000046415400024600E0521C107815
:1047000010B110788842F9D11078704730B5024660
:104710000B4600200446014624E001EB41001E4DFB
:1047200055F82000E0B101EB410055F82000D2F827
:104730000052A84215D101EB4100174D05EB800056
:104740004068D2F80852A8420BD101EB4100124D4B
:1047500005EB80000089B2F80652A84201D103E0BF
:104760000124491C0229D8D300BF022906D10CB963
:10477000022B01D1002030BD1220FCE743B901EB30
:104780004100054D05EB80004089B0F5807F01D1E7
:104790001020F0E70020EEE7B400002010B501463D
:1047A00000200DE000EB4002074B53F822208A4224
:1047B00005D1002200EB4003034C44F82320401CA9
:1047C0000228EFD310BD0000B400002070B50346EE
:1047D0000D46D3F82402021D680AD3F8006296F849
:1047E0000262B0FBF6F400BF02CA09B9002070BD36
:1047F0008C4200D202E0641A121DF5E700BF106877
:104800002044F4E70246891ED2F81402801E884232
:1048100001D80020704792F80232D2F8280201FB3A
:104820000300F7E72DE9F04704468946B9F1000F88
:1048300008D1D4F80C721FB1D4F81402B84216D8BB
:10484000012714E04946204601F018FA0646022ED8
:1048500002D20120BDE8F087701C08B93046F9E7A4
:10486000D4F81402B04201D93046F3E74F463D4632
:1048700000BF6D1CD4F81402A84204D80225BD4222
:1048800001D90020E6E72946204601F0F7F906465F
:1048900006B909E0701C08B1012E01D13046D9E7F4
:1048A000BD42E6D10020D5E700BF6FF07042294637
:1048B000204601F005FD8046B8F1000F08D1B9F19E
:1048C000000F05D02A464946204601F0F9FC8046F3
:1048D000B8F1000F11D1C4F80C52D4F81002401CEA
:1048E00098B1D4F81002401EC4F8100294F80502E2
:1048F00040F0010084F8050207E0B8F1010F02D191
:104900004FF0FF3000E0012005462846A2E70000F6
:104910002DE9F35F8A46DAF8007000E07F1C3878F2
:104920002F28FBD038785C28F8D00098D0F818628F
:104930000B222021304601F09DFC0025A946AB4604
:104940004FF0080800BF58460BF1010B3C5C202CCF
:1049500003DD2F2C01D05C2C00D136E02E2C01D0B1
:10496000C1450ED3B8F1080F01D12E2C02D006207C
:10497000BDE8FC9F4FF008094FF00B08A806050E94
:10498000E1E7802C05DB45F00305A4F18000234915
:104990000C5C214622A0FFF7AFFE08B10620E7E736
:1049A000412C04DB5A2C02DC45F0020508E0612CA6
:1049B00006DB7A2C04DC45F00105A4F12000C4B22A
:1049C000484609F101093454BDE700BF07EB0B006D
:1049D000CAF80000202C01DC042000E0002004467E
:1049E000B9F1000F01D10620C2E73078E52801D1E6
:1049F00005203070B8F1080F01D1A806050E05F0AA
:104A00000300012801D144F0100405F00C00042833
:104A100001D144F00804F4720020A9E7AE67000851
:104A2000222A2B2C3A3B3C3D3E3F5B5D7C7F0000C5
:104A300030B50246531E1A46022B1BD202EB42032C
:104A40000D4C04EB83035989B1F5807F00D100211F
:104A500009B14B1E99B202EB4203074C04EB8303EE
:104A6000598129B9002302EB4204034D45F8243053
:104A7000002000E0022030BDB400002000B5034655
:104A800003E04FF47A7000F006F8181EA3F101015C
:104A90008BB2F6D100BD00EBC001C9004FF0E0229F
:104AA0005161002191610521116100BF4FF0E021AA
:104AB000096901F480310029F8D004214FF0E02287
:104AC000116170472DE9F04104460E460021204651
:104AD00000F069F905460DBB002700BFD4F810129D
:104AE000D4F8000201F0D0FB054605B115E0D4F87A
:104AF00014020078E52803D0D4F81402007820B915
:104B0000781C0746B04201D107E00027012120466A
:104B100000F03CF80546002DE0D000BF042D00D188
:104B200007252846BDE8F0812DE9F0410446002123
:104B3000204600F038F9054615B12846BDE8F08159
:104B400000BFD4F81012D4F8000201F09DFB054616
:104B500005B118E0D4F8146237780FB9042512E0D3
:104B6000F07A00F0080038B90B223046D4F8181259
:104B700001F060FB00B906E00021204600F006F8D5
:104B80000546002DDDD000BF2846D7E72DE9F041CE
:104B900004468846B4F80602461CB0B210B1D4F8F8
:104BA000100210B90420BDE8F08106F00F000028C3
:104BB0007ED1D4F81002401CC4F81002D4F80C02C4
:104BC00038B9D4F80002B0F80802B0427FD8042007
:104BD000E9E7D4F8000290F80202401E00EA16103D
:104BE000002874D1D4F80C12D4F8000201F046F871
:104BF0000546012D01D80220D5E7681C08B901201F
:104C0000D1E7D4F80002D0F81402A84256D8B8F17F
:104C1000000F01D10420C6E7D4F80C12D4F800022A
:104C2000FFF700FE05460DB90720BCE7012D01D1B5
:104C30000220B8E7681C08B90120B4E7D4F80002E4
:104C400001F0BCFC08B10120ADE74FF40072002177
:104C5000D4F8000201F00EFB2946D4F80002FFF759
:104C6000D1FDD4F80012C1F82C02002715E0012074
:104C7000D4F8001281F80402D4F8000201F09EFC7E
:104C800008B101208FE7D4F80002D0F82C02401CB4
:104C9000D4F80012C1F82C027F1CD4F8000290F85E
:104CA0000202B842E3D8D4F80002D0F82C0200E0A7
:104CB0000DE0C01BD4F80012C1F82C02C4F80C524D
:104CC0002946D4F80002FFF79DFDC4F81002A4F8AD
:104CD000066206F00F00D4F8001201EB4010C4F891
:104CE000140200205FE72DE9F047044689460425B9
:104CF0002AE0D4F81012D4F8000201F0C5FA0546F3
:104D000005B125E0D4F8148298F800600EB90425A6
:104D10001EE098F80B0000F03F07E52E0DD02E2E78
:104D20000BD00F2F09D027F02000082801D1012037
:104D300000E00020484500D10AE000212046FFF7AE
:104D400025FF054605B103E0D4F810020028D0D1B4
:104D500000BF15B10020C4F810022846BDE8F08756
:104D600070B5044601212046FFF7ACFE0546C5B9E3
:104D7000D4F81012D4F8000201F086FA054685B97D
:104D800020220021D4F8140201F074FA0B2204F559
:104D9000057003C801F061FA0120D4F8001281F80F
:104DA0000402284670BD2DE9F04104460E46A4F8E1
:104DB0000662D4F80852012D05D0D4F80002D0F8CC
:104DC0001402A84202D80220BDE8F0814DB9D4F8FF
:104DD000000290F80002032803D1D4F80002D0F8B2
:104DE000245265B9D4F80002B0F80802B04201D8E4
:104DF0000220E9E7D4F80002D0F8247224E0D4F8C5
:104E0000000290F802024FEA001815E02946D4F893
:104E1000000200F033FF0546681C08B90120D3E703
:104E2000022D05D3D4F80002D0F81402A84201D80C
:104E30000220C9E7A6EB08064645E7D22946D4F882
:104E40000002FFF7DFFC0746C4F80C520FB902203E
:104E5000BAE707EB1610C4F8100206F00F00D4F8FA
:104E6000001201EB4010C4F814020020ACE700006F
:104E700010B50446024801682046884710BD00006E
:104E80003C00002070B504460D46164603483246E5
:104E9000294603692046984770BD00003C00002069
:104EA0002DE9F04104460D4616461F4604483B4690
:104EB00032462946D0F808C02046E047BDE8F081D8
:104EC0003C00002010B5044602484168204688474F
:104ED00010BD00003C0000202DE9F04104460D46C5
:104EE00016461F4604483B4632462946D0F80CC0B9
:104EF0002046E047BDE8F0813C000020002100E0B2
:104F0000491C022906D201EB4100054A52F8200053
:104F10000028F5D1022901D0012070470020FCE7CC
:104F2000B400002070B50546284600F0DBFA0446C0
:104F30006CB9284601F072FB044644B9D5F8280242
:104F4000FFF776FD044614B90020C5F8000220469C
:104F500070BD70B50446204601F060FB05465DB9A2
:104F6000D4F81C0220B1D4F81C02FFF761FD0546FD
:104F700015B90020C4F80002284670BDF7B582B00C
:104F800016460398019001A800F02DFF0546002D5C
:104F900002DA0B2005B0F0BD104850F825402CB1C6
:104FA0002046FFF7FBFB002084F80002029818B1AE
:104FB0000020029981F800020849029841F8250072
:104FC000029808B1012E01D00020E3E7002203A9D6
:104FD00002A800F017FC07463846DBE72000002057
:104FE0002DE9F743ADF50C7D0546164625B9092098
:104FF0000DF50F7DBDE8F0830020C5F8000206F036
:105000001F0626F001028DA984A800F0FBFB0746CD
:10501000002F73D101A88A9004A88D9900F0E0FDBB
:105020000746899C6FB90CB906270AE026F00100F3
:1050300008B1012000E00020014604A8FFF766FB4C
:10504000074606F01C00002859D077B1042F08D17C
:10505000FFF754FF18B104A8FFF782FE00E012200A
:10506000074646F00806899C09E0E07A00F0110046
:1050700008B1072703E006F0040000B10827002F5D
:105080004CD106F00800002848D000F06FFE8046A2
:1050900084F80E804FEA1821E1734FEA1841217419
:1050A0004FEA186161740020E07220770021617777
:1050B000A177E1772146849800F02EFF81460021F8
:1050C000204601F0F9F90120849981F80402B9F130
:1050D000000F23D08498D0F82C824946849801F0A0
:1050E00092F90746D7B9A9F101008499C1F80C02D9
:1050F0004146849801F0C8F807460FE04DE06FB9CB
:10510000E07A00F0100008B1042707E006F0020082
:1051100020B1E07A00F0010000B10727DFB906F006
:10512000080008B146F020068498D0F82C02C5F893
:105130001C02C5F8204226F0010008B1012000E061
:105140000020014604A800F073FEC5F82802D5F837
:10515000280200B9022707BB05F50075AE710020D3
:10516000E8712146849800F0D7FE2861E07F0106AF
:10517000A07F41EA0041607F41EA0020217F08438F
:10518000E8600020A860A8616862849828602868A8
:10519000B0F80602A880A5F50075384628E733B5B3
:1051A00085B0044614B9092007B030BD002206A915
:1051B00004A800F027FB0546002D3DD10498C4F853
:1051C000000201A8C4F818022046069900F008FD64
:1051D000054655BBD4F8140270B1D4F81402C07A55
:1051E00000F0100038B1D4F81412049800F094FEC6
:1051F000C4F8080200E00525BDB90498B0F806021D
:10520000A4F8040200212046FFF7CDFD054665B94C
:10521000D4F8080250B10021204600F009FEC4F87D
:105220001C02D4F81C0200B9122502E00020C4F8C8
:105230001C02042D00D1052515B10020C4F8000280
:105240002846B1E72DE9FF4F83B0044615469A463C
:10525000DDF810B00020CAF80000204601F0DEF9A9
:105260000290029818B1029807B0BDE8F08F94F848
:10527000070210B194F80702F6E794F8060200F06E
:10528000010008B90720EFE7D4F80812D4F80C029F
:10529000401A00900098854200D9009DCFE0B4F8F4
:1052A0000802C0F3080000287BD1D4F8000290F86F
:1052B0000202401ED4F8081200EA512000F0FF0953
:1052C000B9F1000F28D1D4F8080218B9D4F81002A7
:1052D000019010E0D4F8240230B12046D4F808122E
:1052E000FFF774FA019006E0D4F81412D4F8000223
:1052F00000F0C4FC01900198022803D2022084F837
:105300000702B1E70198401C18B9012084F8070290
:10531000AAE70198C4F81402D4F81412D4F80002D1
:10532000FFF770FA06461EB9022084F807029BE7D1
:105330004E444FEA5528B8F1000F33D009EB08006E
:10534000D4F8001291F80212884205D9D4F800026C
:1053500090F80202A0EB0908D4F8001291F80102BB
:10536000434632465946FFF79BFD18B1012084F8A9
:10537000070279E794F8060200F0400070B1D4F813
:105380001802801B404509D2D4F81812891B0BEB78
:1053900041204FF40072214600F05FFF4FEA48279A
:1053A00041E02DE0D4F81802B04227D094F806026C
:1053B00000F04000A0B1D4F8001291F801020123DE
:1053C0002146D4F81822FFF787FD18B1012084F890
:1053D000070249E794F8060220F0400084F806022C
:1053E000D4F8001291F80102012332462146FFF75A
:1053F00057FD18B1012084F8070235E7C4F8186298
:10540000B4F80802C0F30800C0F50077AF4200D935
:105410002F46B4F80802C0F3080001193A4658466E
:1054200000F01BFF00BFBB44D4F808023844C4F8A6
:105430000802DAF800003844CAF80000ED1B002D1D
:105440007FF42DAF00200FE7FEB505460E46284637
:1054500001F0E4F804461CBB2EB900212846FFF7F2
:10546000A2FC04461CE0C5F818D200212846FFF72C
:105470003AFC0446042C03D10020C5F81002002495
:1054800074B93146284600F075FC00212846FFF724
:105490007DFB0446042C03D10020C5F81002002433
:1054A0002046FEBD33B5ADF50B7D0D4600228BA920
:1054B00083A800F0A7F9044684B9CDF824D203A844
:1054C0008B9900F08DFB044644B9889828B12DB122
:1054D000294603A800F04EFC00E0062420460DF506
:1054E0000D7D30BD2DE9F0410446204601F096F8CF
:1054F0000746002F59D194F8060200F0200000283A
:1055000053D094F8060200F0400098B1D4F800128D
:1055100091F8010201232146D4F81822FFF7DCFCA0
:1055200010B10120BDE8F08194F8060220F040009F
:1055300084F80602D4F81C12D4F8000200F0A4FE8D
:105540000746002F31D104F50074256AE87A40F04F
:105550002000E872207B2877A089010A6977E0683B
:10556000010CA977E068010EE9772846216900F06F
:10557000A3FF00F0FBFB0646AE75310AE975310C5E
:105580002976310E69760020A8740021E974A0798B
:1055900020F02000A0710120216881F80402206819
:1055A000A4F5007400F090FF07463846BAE72DE9ED
:1055B000FF4F83B0044615469B4604980190002097
:1055C000CBF80000204601F029F80290029818B1AB
:1055D000029807B0BDE8F08F94F8070210B194F874
:1055E0000702F6E794F8060200F0020008B9072067
:1055F000EFE7D4F808022844D4F80812884200D211
:105600000025EAE0B4F80802C0F3080000287DD1C4
:10561000D4F8000290F80202401ED4F8081200EA02
:10562000512000F0FF0ABAF1000F32D1D4F808027D
:1056300048B9D4F81072BFB90021D4F80002FFF7BE
:10564000F1F8074610E0D4F8240230B12046D4F82F
:105650000812FFF7BBF8074606E0D4F81412D4F896
:105660000002FFF7DFF8074607B9B9E0012F03D1C1
:10567000022084F80702ACE7781C18B9012084F8EE
:105680000702A6E7C4F81472D4F8100208B9C4F8E7
:10569000107294F8060200F04000A0B1D4F8001295
:1056A00091F8010201232146D4F81822FFF714FCD7
:1056B00018B1012084F807028BE794F8060220F065
:1056C000400084F80602D4F81412D4F80002FFF760
:1056D00099F806461EB9022084F8070279E7564475
:1056E0004FEA5529B9F1000F36D00AEB0900D4F87A
:1056F000001291F80212884205D9D4F8000290F8FD
:105700000202A0EB0A09D4F8001200E03DE091F893
:1057100001024B4632460199FFF7DEFB18B101202A
:1057200084F8070255E7D4F81802801B484510D2C8
:10573000D4F81802801B019A02EB40214FF400724A
:10574000204600F08AFD94F8060220F0400084F81C
:1057500006024FEA492831E0D4F81802B04212D0CC
:1057600004F5027003C888420DD2D4F8001291F8F3
:105770000102012332462146FFF792FB18B10120B6
:1057800084F8070225E7C4F81862B4F80802C0F3E9
:105790000800C0F50078A84500D9A846B4F808125A
:1057A000C1F3080108194246019900F056FD94F82A
:1057B000060240F0400084F8060200BF0198404411
:1057C0000190D4F808024044C4F80802DBF8000055
:1057D0004044CBF80000A5EB0805002D7FF412AF84
:1057E00000BF04F5027003C8884203D9D4F8080248
:1057F000C4F80C0294F8060240F0200084F8060277
:105800000020E6E62DE9F74F8AB000210A980160F2
:105810000B9800F0E8FA09900998002803DA0B20A9
:105820000DB0BDE8F08FEA49099851F820400CB955
:105830000C20F5E70A98046094F8000280B194F80F
:105840000102FFF73FFB814609F0010040B90C98C7
:1058500020B109F0040008B10A20E1E70020DFE7E9
:10586000002084F80002099884F8010294F80102EB
:10587000FFF7FEFA814609F0010008B10320CFE7E7
:105880000C9820B109F0040008B10A20C8E70027ED
:1058900039462046FEF7E4FE0546012D01D09DBBAA
:1058A00032E000261AE004F5DF7000EB061898F8E5
:1058B000040070B198F80B00010698F80A0041EA5C
:1058C000004198F8090041EA002098F808100843C0
:1058D00000E0002002A941F82600761C042EE2D345
:1058E000002606B1761E00BF02A850F8267027B128
:1058F00039462046FEF7B4FE00E0022005461DB101
:10590000701C06460428EFD3032D01D1012087E740
:105910000DB10D2084E7E17A207B41EA0020B0F54B
:10592000007F01D00D207BE7A17DE07D41EA002AC8
:10593000BAF1000F0ED12720005D01062620005D80
:1059400041EA00412520005D41EA002094F824103E
:1059500040EA010AC4F818A2207C84F8030294F8F3
:105960000302012805D094F80302022801D00D207B
:1059700056E794F803020AFB00FA607B84F80202FF
:1059800094F8020220B194F80202411E084008B1C6
:105990000D2045E7617CA07C41EA0020A4F80802C4
:1059A00094F8080200F00F0008B10D2038E7E17C00
:1059B000207D41EA00200890089870B92320005DFE
:1059C00001062220005D41EA00412120005D41EAFC
:1059D000002094F8201008430890A17BE07B41EA66
:1059E00000200190019808B90D2019E70198504452
:1059F000B4F8081200EB11100790DDE907018142AD
:105A000001D20D200CE7DDE90710401A94F80212CC
:105A1000B0FBF1FBBBF1000F01D10D2000E7012528
:105A200040F6F670834500D302254FF6F6708345A5
:105A300000D303250BF10200C4F81402C4F81C7251
:105A400001983844C4F8200207983844C4F8280262
:105A5000032D19D1B4F8080208B10D20E0E62F207B
:105A6000005D01062E20005D41EA00412D20005D11
:105A700041EA002094F82C100843C4F82402D4F81A
:105A80001402800006901AE0B4F8080208B90D204C
:105A9000C6E6D4F820025044C4F82402022D03D1F3
:105AA000D4F81402400009E094F8140200F0010058
:105AB000D4F8141201EB410100EB51000690D4F828
:105AC0001812069800F2FF10B1EB502F01D20D20F2
:105AD000A6E64FF0FF30C4F81002C4F80C02802094
